:020000040000FA
:1000000000020010950100009D0100009F0100000A
:10001000A1010000A3010000A501000000000000F4
:10002000000000000000000000000000A701000028
:10003000A901000000000000AB010000AD010000BC
:10004000AF0100004D020000AF010000AF01000051
:10005000AF010000AF010000AF010000AF010000E0
:10006000AF010000AF010000AF010000AF010000D0
:10007000AF010000AF010000AF010000AF010000C0
:10008000AF010000AF010000AF010000AF010000B0
:10009000AF010000AF010000AF010000AF010000A0
:1000A000AF010000AF010000AF010000AF01000090
:1000B000AF010000AF010000AF010000AF01000080
:1000C000AF010000AF010000AF01000000F002F836
:1000D00000F050F814A696E8000CB244B344DA4598
:1000E00001D100F047F8BAE80F000FA696E83000FB
:1000F000A5EB040504EB0607AAEB0704A7F101072B
:100100004FEA15154FEA3414A4F10104AC4201D3AF
:1001100000F030F813F0010F18BFFB1A43F0010391
:1001200000F001F8DBE7184728050000580500003B
:10013000103A24BF78C878C1FAD8520724BF30C813
:1001400030C144BF04680C60704700007047000075
:100150000023002400250026103A28BF78C1FBD8D0
:10016000520728BF30C148BF0B6070471FB51FBD85
:1001700010B510BD00F02FF81146FFF7F7FF00F0A3
:10018000ADF900F04DF803B4FFF7F2FF03BC00F047
:1001900055F800000948804709480047FEE7FEE798
:1001A000FEE7FEE7FEE7FEE7FEE7FEE7FEE7FEE727
:1001B00004480549034A054B70470000010300004D
:1001C000CD00000068C007200002001000000010F1
:1001D000704770477047754600F02CF8AE46050032
:1001E0006946534620F00700854618B020B5FFF752
:1001F000DFFFBDE820404FF000064FF000074FF052
:1002000000084FF0000BAC46ACE8C009ACE8C009F0
:10021000ACE8C009ACE8C00921F007018D46704781
:1002200010B50446AFF300802046BDE81040FFF74C
:10023000AABF00000048704708C0072001491820E5
:10024000ABBEFEE726000200704700004FF04020E2
:100250000068C00740B3FFE74FF04021012008606D
:100260004CF20000C2F20700007870B1FFE74CF2D8
:100270001801C2F209014FF0FF7008604CF2000152
:10028000C2F20701002008700DE04CF21C01C2F21E
:1002900009014FF0FF7008604CF20001C2F2070143
:1002A00001200870FFE7FFE77047000081B08DF87C
:1002B00003009DF9030000280ED4FFE79DF9031009
:1002C00001F01F02012090404A094EF20011CEF2C7
:1002D000000141F82200FFE701B0704780B544F209
:1002E0001401C4F20001086840F001000860012018
:1002F000FFF7DCFF80BD000000000000FFFFFFFFF4
:100300004CF2A010C4F20F002021016000688006AA
:1003100000280CD5FFE7FFE74CF2A010C4F20F0055
:1003200000684006002801D4FFE7F5E7FFE74CF23C
:100330000411C4F20F01032008604CF2A811C4F2AA
:100340000F01002008604CF2AC11C4F20F010860EC
:100350004CF20C10C4F20F00012303604CF2840134
:10036000C4F20F016320C0F2050008604CF28C015A
:10037000C4F20F01AA220A60552008604CF2800CDA
:10038000C4F20F0CCCF800300A600860FFE74CF2B2
:100390008800C4F20F0000684001002801D4FFE784
:1003A000F5E74CF28001C4F20F01032008604CF223
:1003B0008C01C4F20F01AA20086055200860FFE7F5
:1003C0004CF28800C4F20F00006800F04070B0F1F9
:1003D000407F01D0FFE7F3E74CF2A401C4F20F0124
:1003E000232008604CF2AC01C4F20F01AA220A607B
:1003F000552008604CF2A00CC4F20F0C0123CCF87D
:1004000000300A600860FFE74CF2A800C4F20F0059
:1004100000684005002801D4FFE7F5E74CF2A00191
:10042000C4F20F01032008604CF2AC01C4F20F01CA
:10043000AA20086055200860FFE74CF2A800C4F22B
:100440000F00006800F44070B0F5407F01D0FFE776
:10045000F3E74CF2C401C4F20F0148F2DE70C0F2BF
:10046000284008604CF2C811C4F20F010020086057
:100470004CF20001C4F20F010868042262F30F304D
:100480000860704782B08DF8070000919DF9070061
:1004900000280AD4FFE70098C0009DF907104EF22B
:1004A0000042CEF2000288540BE00098C0009DF894
:1004B000071001F00F014EF61452CEF200028854DC
:1004C000FFE702B07047000044F21401C4F20001DB
:1004D000086840F0020008607047000080B582B0F4
:1004E0000020009001904CF20001C2F209014FF08F
:1004F000FF70086000F0A2F800F096F8009800F095
:100500007FF84CF2C060C0F22D0000F06FF8FFF7EA
:10051000E5FEFFF7D9FF022000F05CF800F07AF862
:1005200000F002F8FFE7FEE74CF2C401C4F20F014D
:10053000086840F0400008604CF21001C4F202016B
:10054000086820F003000860086840F001000860B7
:100550004CF25001C4F20201086840F00200086049
:1005600048F20401C4F20101086840F0020008608A
:1005700048F20C02C4F201020020106048F2180296
:10058000C4F201024DF29000C0F20300106048F284
:100590001C02C4F201024EF64800C0F201001060D5
:1005A00048F21402C4F20102106840F00200106028
:1005B00048F24C02C4F20102106840F4007010606E
:1005C00048F25002C4F201020320106009200860C2
:1005D0007047000080B582B08DF807009DF80710C5
:1005E0000120FFF74FFF02B080BD000081B00090F6
:1005F000009844F21801C4F20001086001B070478D
:1006000081B00090009844F20C01C4F2000108602F
:1006100001B0704744F20401C4F20001086840F0E0
:10062000010008607047000044F20401C4F20001B8
:10063000086820F001000860704700004CF2C40117
:10064000C4F20F01086840F0020008607047000023
:100650008006000000C007200800000030010000F4
:1006600080060000000000100002000050010000A1
:100670008806000008C0072060000000500100004C
:08068000010000000000000071
:04000005000000CD2A
:00000001FF
